:060000000A128A11122809
:10000800FE00030EF8000408F9000A08FA0083123B
:1000180003137F08FB000A128A11662C0A128A1140
:100028001528831603130A128A151A230A128A112D
:10003800D8000A128A151B230A128A11D9000A123B
:100048008A151C230A128A11DA000A128A151D233E
:100058000A128A11DB00831203130A128A11FF277E
:100068000A128A11EF00831790308400B8300A1200
:100078008A1526230A128A118313A0308400D830E7
:100088000A128A152623E801E901EA01EB01EC01CD
:10009800ED01EE01FC01FD0183010A128A11CB2E4C
:1000A800693083120313BC003C08AE00BA300A1250
:1000B8008A15E7250A128A11003A03197F280A12BD
:1000C8008A1537230A128A11063A031D7F28013040
:1000D80083120313E8000030E90083160313B1010B
:1000E800B201443083120313B5008030B6000A12FF
:1000F8008A113A250800713083120313BC003C08AA
:10010800AE00BA300A128A15E7250A128A11003A97
:100118000319AA280A128A1537230A128A11073ADC
:10012800031DAA28013083120313E8000030E900F8
:1001380083160313B101B2014E3083120313B500C5
:100148008030B6000A128A113A250800443083121A
:100158000313BC003C08AE00BA300A128A15E72522
:100168000A128A11003A0319CC280A128A15372371
:100178000A128A11043A031DCC2801308312031392
:10018800E8000030E90083160313B101B20108004A
:100198004E3083120313BC003C08AE00BA300A127A
:1001A8008A15E7250A128A11003A0319EE280A125D
:1001B8008A1537230A128A11053A031DEE280130E1
:1001C80083120313E8000030E90083160313B1011A
:1001D800B2010800963083120313BC003C08AE003D
:1001E800BA300A128A15E7250A128A11003A031949
:1001F80014298312031307150A30A0000030A10048
:100208000A128A1549240A128A1183120313071144
:100218000530A0000030A1000A128A154924080000
:10022800883083120313BC003C08AE00BA300A12AF
:100238008A15E7250A128A11003A03193A29831206
:10024800031387140A30A0000030A1000A128A158F
:1002580049240A128A118312031387100530A0005B
:100268000030A1000A128A15492408007930831247
:100278000313BC003C08AE00BA300A128A15E72501
:100288000A128A11003A03195C2900300A128A15E9
:10029800B3240A128A1183120313BC003C08BD0060
:1002A8003D30B5000030B6000A128A113A25080020
:1002B8008F3083120313BC003C08AE00BA300A1218
:1002C8008A15E7250A128A11003A03197E29033094
:1002D8000A128A15B3240A128A1183120313BC0066
:1002E8003C08C5004530B5000030B6000A128A1136
:1002F8003A250800583083120313BC003C08AE00AE
:10030800BA300A128A15E7250A128A11003A031927
:10031800A9290A128A15DC240A128A1183120313E6
:100328006C0803199F293630B5008030B6000A12D0
:100338008A113A250800283083120313B50080304B
:10034800B6000A128A113A25080081308312031375
:10035800BC003C08AE00BA300A128A15E7250A121A
:100368008A11003A0319CF29831203136F03031D5F
:10037800C529AC30B5008030B6000A128A113A257A
:100388000800A83083120313B5008030B6000A12A3
:100398008A113A250800613083120313BC003C0817
:1003A800AE00BA300A128A15E7250A128A11003AF5
:1003B8000319E829831203136F03031DE529EF01CD
:1003C8000800EF01EF0A0800A33083120313BC00F2
:1003D8003C08AE00BA300A128A15E7250A128A11BB
:1003E800003A03190A2A7C080A128A158F240A126D
:1003F8008A1183120313BC003C08CD004D30B500B0
:100408000030B6000A128A113A2508009D3083127E
:100418000313BC003C08AE00BA300A128A15E7255F
:100428000A128A11003A03190800C0300A128A1108
:100438005B270A128A11831203132708DE00260895
:10044800DD005D08BC003C08D5005530B500003023
:10045800B6000A128A113A250A128A118312031366
:100468005D08BC003C08A0007C080A128A153125EA
:100478000800303083120313B5003508A700003098
:100488000A128A15DF230A128A11A830831203136D
:10049800B5003508A70001300A128A15DF230A12B1
:1004A8008A11093083120313B5003508A7000230FA
:1004B8000A128A15DF230A128A11073083120313DE
:1004C800B5003508A70003300A128A15DF230A127F
:1004D8008A110A3083120313B5003508A7000530C6
:1004E8000A128A15DF230A128A11B93083120313FC
:1004F800B5003508A7000D300A128A15DF230A1245
:100508008A11113083120313B5003508A7000E3085
:100518000A128A15DF230A128A11A33083120313E1
:10052800B5003508A70010300A128A15DF230A1211
:100538008A113E3083120313B5003508A700123024
:100548000A128A15DF230A128A1153308312031301
:10055800B5003508A70016300A128A15DF230A12DB
:100568008A11593083120313B5003508A7001730D4
:100578000A128A15DF230A128A114E3083120313D6
:10058800B5003508A70018300A128A15DF230A12A9
:100598008A11433083120313B5003508A7001930B8
:1005A8000A128A15DF230A128A1172308312031382
:1005B800B5003508A7001A300A128A15DF230A1277
:1005C8008A113C3083120313B5003508A7001B308D
:1005D8000A128A15DF230A128A1180308312031344
:1005E800B5003508A7001F300A128A15DF230A1242
:1005F8008A1100300A128A152D240A128A1101382C
:1006080083120313B5003508A70000300A128A15B3
:10061800DF230A128A110A128A1164230A128A1124
:10062800013A031D232B013083120313A600003067
:10063800A7000A128A11CC270A128A115F2B0130EF
:1006480083120313B6000030B7003708803AFF0062
:1006580080307F02031D322B0430360203185F2BD3
:100668008312031387140130A0000030A1000A127E
:100678008A1549240A128A1183120313871001303C
:10068800A0000030A1000A128A1549240A128A1112
:10069800013083120313B6070318B70A0030B707EF
:1006A8003708803AFF0080307F02031D5D2B04303D
:1006B8003602031C342B00300A128A1591270800D1
:1006C80083120313B101B20183160313B901AF01F9
:1006D800B001063083120313B0001330AF00AD3001
:1006E800AE00AE0B752BAF0B752BB00B752B8312B1
:1006F8000313B301B4013408803AFF0080307F024D
:10070800031D882B0D3033020318642C8312031346
:1007180033080E3E84000A128A1116260A128A111C
:10072800AE002E08A70006300A128A15DF230A1227
:100738008A11831203133308013E84000A128A11B6
:1007480016260A128A11AE002E08A70007300A12D0
:100758008A15DF230A128A118312031333081B3EFA
:1007680084000A128A1116260A128A11AE002E086F
:10077800A70008300A128A15DF230A128A11831289
:10078800031333080E3E84000A128A1116260A1231
:100798008A11AE002E08A70009300A128A15DF2335
:1007A8000A128A11831203133308013E84000A12C5
:1007B8008A1116260A128A11AE002E08A7000A30DE
:1007C8000A128A15DF230A128A11831203133308C7
:1007D8001B3E84000A128A1116260A128A11AE00DC
:1007E8002E08A7000B300A128A15DF230A128A1175
:1007F8000E300A128A152D240A128A110238831221
:100808000313AE002E08A7000E300A128A15DF2344
:100818000A128A1140300A128A1591270A128A117F
:1008280083120313B101B201831203133208803A11
:10083800FF0080307F02031D232C0530310203188E
:10084800512C0E300A128A152D240A128A110239E7
:100858000319402C83160313B901B90A8312031331
:10086800340883160313B000831203133308831666
:100878000313AF0001300800013083120313B107DE
:100888000318B20A0030B207C73083120313AE0050
:100898004D2CAE0B4C2C502C182C0130831203130A
:1008A800B3070318B40A0030B4073408803AFF00CD
:1008B80080307F02031D622C0D303302031C8A2B0B
:1008C80000300800861A812C68086904031D812CF1
:1008D8000A128A152E230A128A11F50002307502AF
:1008E8000318812C013083120313E8000030E9005B
:1008F80083160313B101B201872C83120313861ADE
:10090800872CEE01EE0A83120C1C2D2D10100B30D3
:100918008F00DB308E0068036904031DBA2C831630
:1009280003135B08F6005A08F5000310F50DF60DE1
:100938003208803AF7007608803A7702031DA62C21
:10094800750831020318BA2C013083160313B10756
:100958000318B20A0030B207831203138718B72CA2
:1009680087140715DB2C871CDB2CD92C8312031367
:1009780068036904031DDB2C831603135B08F60068
:100988005A08F5000310F50DF60D3208803AF70005
:100998007608803A7702031DD32C75083102031CB0
:1009A800DB2C83120313E801E901871007110130DA
:1009B80083160313B5070318B60A0030B6073608BE
:1009C800803AFF0080307F02031DEC2C0230350294
:1009D800031CFF2C83160313B501B60101308312E3
:1009E8000313EA070318EB0A0030EB070A128A150B
:1009F80061250A128A11831203136B08803AFF00DB
:100A080080307F02031D0A2D3C306A02031C182D1A
:100A180083120313EA01EB01013083160313B707AE
:100A28000318B80A0030B807831603133808803A49
:100A3800FF0080307F02031D232D3C303702031C4A
:100A4800292D83160313B701B80183120313101459
:100A58000C100B108B177B08FF007A088A007908A6
:100A68008400780E8300FE0E7E0E09000430831287
:100A78000313A0000030A1000530A2000030A3003D
:100A88000A128A1585230A128A1183120313BA01DE
:100A9800BB0120300A128A1591270A128A110D30DB
:100AA80083120313B800FB30B700B70B592DB80BEE
:100AB800592D0E300A128A152D240A128A1102386D
:100AC80083120313B7003708A7000E300A128A15DD
:100AD800DF230A128A1140300A128A1591270A1256
:100AE8008A110E300A128A152D240A128A11023927
:100AF800031D882D831603132E080319752D0A125A
:100B08008A1164230A128A1180300A128A159127E1
:100B18000A128A11A53083120313B700B70B922D5E
:100B2800952D53300A128A1540230A128A1159301A
:100B38000A128A1540230A128A114E300A128A159F
:100B480040230A128A1143300A128A1540230A12D6
:100B58008A11831203133A083507B8003608B7001C
:100B68000318B70ABA1BB703831203133708B9006F
:100B78003908FF00380884000A128A110C260A1264
:100B88008A11003A0319F32D831203133A08350723
:100B9800B8003608B7000318B70ABA1BB7038312A0
:100BA80003133708B9003908FF00380884000A120F
:100BB8008A110C260A128A110A128A1540230A126F
:100BC8008A11013083120313BA070318BB0A0030D5
:100BD800BB07AD2D831603132E08031DF62D8312B4
:100BE800061EEE2D023083120313B700B70BFA2D41
:100BF800000000300A128A1591270A128A11C7309C
:100C080083120313B700082EB70B072E0B2E08000C
:100C1800FF1B162E83137F1883170008840A0319F5
:100C2800FF0A080006308A000408840A8207003494
:100C38003F3447344F3457345F3477347E347F340D
:100C480086348734373467346F344F3459346334D7
:100C58006D34773495349F349F34A934A93445349E
:100C680081348B3418341B341E34213424342D340D
:100C78007B3430347E343334153427342A344E34BC
:100C88006F34743420344434613472346B34203417
:100C98002034203420342034003449347434273448
:100CA800733420344434613472346B342034203447
:100CB8002034203400344E343134533454344134E5
:100CC800523454344534443400344E34323453347A
:100CD8005434413452345434453444340034443464
:100CE800413452344B34433441344C34433400346B
:100CF8004334483453345434413454344534003440
:100D08004E34313442344C3449344E344B3400344C
:100D18004E34323442344C3449344E344B3400343B
:100D2800533445344E345334563441344C340034FF
:100D3800533454344134543445343F340034463405
:100D48004C344134533448344234003450344F34F2
:100D58005434563441344C34003446344C344134E1
:100D6800533448344C3400345334453454344434C4
:100D78005634003452344D344434563400345034EC
:100D880049344334003450346F34743400340A1214
:100D98008A157C260A128A110A128A1537230A1222
:100DA8008A11033A031DE22EB43083160313DA00C6
:100DB8000030DB00B430D8000030D9000530831291
:100DC8000313E7000F30E600F030E500E50BEA2EEC
:100DD800E60BEA2EE70BEA2E00000A128A113D22E2
:100DE8000A128A110A128A1537230A128A11003A3E
:100DF800031D032F0A128A1516230A128A110A12D2
:100E08008A1537230A128A11013A031D102F0A1274
:100E18008A15C5230A128A110A128A1537230A125B
:100E28008A11023A031D1D2F0A128A154C230A1231
:100E38008A110A128A1537230A128A11033A031DE6
:100E48002A2F0A128A15AC230A128A110A128A1545
:100E580037230A128A11043A031D372F0A128A15FA
:100E6800F9230A128A110A128A1537230A128A11DB
:100E7800053A031D442F0A128A1513240A128A11EF
:100E8800831203136D08031D4E2F0A128A15CF26ED
:100E98000A128A1183120313061EF62E6D0803190F
:100EA800F62E0A128A152B270A128A11F62E831299
:100EB8000313AD002D088400203083130006031DA2
:100EC8006A2F0130A8002808AD075E2F2D0884007E
:100ED800093000060319652FAB01AC01AA012D08E2
:100EE80084002D300006031D7E2F0130A80028083D
:100EF800AA07842F2D0884002B300006031D882F95
:100F08000130A8002808AD072D08840000080A123F
:100F18008A1575230A128A11031CB62F831203132C
:100F28002C08A1002B08A0000A30A2000030A30062
:100F38000A128A156C240A128A11831203132D08C7
:100F48008400831300082007A80021080318210A39
:100F5800A9002808D03EAB0029080318013EFF3E2F
:100F6800AC00842F831203132A080319C72F2B09F7
:100F7800A8002C09A900A80A0319A90A2808A6008C
:100F88002908A70008002C08A7002B08A6000800BD
:100F9800013083120313A9000030AA002708803A01
:100FA800A8002A08803A2802031DDC2F29082602F7
:100FB800031C08008312031387140230A0000030BA
:100FC800A1000A128A1549240A128A1183120313EE
:100FD80087100630A0000030A1000A128A154924A3
:100FE8000A128A11013083120313A9070318AA0AE7
:080FF8000030AA07D22F0134DA
:10162C000A128A152D2608002C3401342C3401346E
:10163C0000300A128A155923831203131308080069
:10164C0064008001840A0406031900340406272B65
:10165C008312031306090739F0007008F1007108B2
:10166C0008008312031306090739A0002008A10003
:10167C002108080083120313A300851223080A1201
:10168C008A15592383120313851608000A128A152A
:10169C002D260A128A1583120313071D572B871444
:1016AC0008008710080083120313A2001308A0007F
:1016BC002008A1008C11220893008C1D632B8C1127
:1016CC0008008312031385120A128A151E23831233
:1016DC000313A3002308A400851624080800831212
:1016EC000313A100A0013A3021020318832B3030E0
:1016FC002102031C832BA001A00A200C08008312DA
:10170C0003132008A4002407A03E8400220883139E
:10171C008000840A230880002008AA3E84008001EF
:10172C00080083120313A20022088400831300080C
:10173C002006031DA32B2208080022088400013078
:10174C00A2070008031D9A2B003008000A128A1504
:10175C002D260A128A15831203136C08031908002C
:10176C00851C080068086904031D08000130E800A6
:10177C000030E90083160313B101B20108001E30DA
:10178C00831203136A066B0403190719D22B0A126E
:10179C008A15DC240A128A15831203136803690460
:1017AC00031DDD2B6C03031DDD2B07150800071132
:1017BC00080083120313AA0005122A08A8002807A0
:1017CC00A9002908AA002A080A128A1559230A1204
:1017DC008A158312031327080A128A1559238312B8
:1017EC00031305160800831203136E0803190F2C3C
:1017FC006930B5008030B6000A128A113A250A12F7
:10180C008A150A128A15CF260A128A158312031317
:10181C00EE010A128A152D260800831203136E0896
:10182C000319292C7130B5008030B6000A128A11C8
:10183C003A250A128A150A128A15CF260A128A1517
:10184C0083120313EE010A128A152D260800831247
:10185C000313A60005122608A30023074038A40092
:10186C002408A60026080A128A1559230A128A157A
:10187C000A128A151E2383120313A3002308A50042
:10188C0005162508080083120313A401A5012508D9
:10189C00803AA2002108803A2202031D572C20080E
:1018AC00240203180800823083120313A300DD30D6
:1018BC00A200A20B5F2CA30B5F2C0130831203132D
:1018CC00A4070318A50A0030A5074D2C8312031397
:1018DC00A401A501201C782C2208A4070318A50A32
:1018EC002308A50701300310A20DA30DFF3E031D15
:1018FC00792C01300310A10CA00CFF3E031D802C91
:10190C0020082104031D702C2508A1002408A00028
:10191C00080083120313A100952C83120313640097
:10192C00831603178C18932C83120313210883122C
:10193C0003178D003F3083120313A0002008831679
:10194C0003178C050C1403100C1803140030031827
:10195C000130831203170C08080083120313A7002D
:10196C002708A600A60DA60D1F082606C3392606B5
:10197C009F001F140130A0000030A1000A128A152C
:10198C0049240A128A15831203139F140130A000F4
:10199C000030A1000A128A1549240A128A158312F2
:1019AC0003139F18D52C1F101E0808008312031355
:1019BC0007106F03031DE92C03300A128A15B32498
:1019CC000A128A15EF2C7C080A128A158F240A1227
:1019DC008A1583120313A8002808A90000300A12E4
:1019EC008A15B3240A128A158312031329020318C9
:1019FC00022DEC01EC0A032DEC01071008008312F8
:101A0C000313A6002608A2002208A70027088400BA
:101A1C000A128A1116260A128A15003A03191B2D6E
:101A2C000130A2002208A7070C2D2608A200803046
:101A3C00A300A209A309A20A0319A30A2708A40058
:101A4C008030A50022082407A00023080318230ACD
:101A5C002507A100080083120313A20083160317A5
:101A6C008C18342D831203132208831203178D0054
:101A7C00831203132008831203178C003F30831248
:101A8C000313A1002108831603178C05831203137B
:101A9C0003108B1B03148B13831603170C15553073
:101AAC008D00AA308D008C140C1183120313031CAF
:101ABC0008008B170800F301F4017408803AFF004A
:101ACC0080307F02031D6C2D053073020318080053
:101ADC007308F0007007A03E840083130008F10027
:101AEC00840A0008F2007208803AFF0080307F02FE
:101AFC00031D822D01307102031C962D7308F0001A
:101B0C007007A03E8400FF3083138007840F000809
:101B1C000318000AFF00FF307F07800084039C2D10
:101B2C007308AA3E840083138001800A0130F307F6
:101B3C000318F40A0030F407632D83120313AD006D
:101B4C000130A9020030031CAA03AA02290A0319B6
:101B5C002A0A0319E42D2D088400831300080319A5
:101B6C00C52D280884000A128A1116260A128A1515
:101B7C00AB002D08840000082B060319DB2D280868
:101B8C0084000A128A111626AB00AC01AB09AC0911
:101B9C00AB0A0319AC0A2D08840000082B07A80017
:101BAC002C0803182C0AA90008000130AB002B08E4
:101BBC00AD070130AB002B08A807A62DA801A90181
:101BCC00080083120313B200222E2E08AF002F0838
:101BDC00A8002E080A128A1505250A128A158312E6
:101BEC0003132108AA002008A90032080A128A153A
:101BFC00A3250A128A158312031328082904031D2E
:101C0C00092E320808002E0884000A128A111626A2
:101C1C000A128A15AF00B0012F08A0003008A100ED
:101C2C003208013E0A128A1597230A128A1583126A
:101C3C000313B1003108B200320803192B2E3208FD
:101C4C00840083130008031DEB2D003008001E30A8
:101C5C00831203136A066B04031907193A2E0A122E
:101C6C008A15DC240A128A15831203136C030319D8
:101C7C00851C572E0719572E07150030A000A10000
:101C8C0083160313590883120313A300831603133B
:101C9C00580883120313A2000A128A1585230A120C
:101CAC008A15831603132A08031908000A128A15C9
:101CBC00DC240A128A15831203136C08031D851C7D
:101CCC007A2E0030A000A10083160313590883124A
:101CDC000313A30083160313580883120313A200E3
:101CEC000A128A15852308000711080083160313AE
:101CFC000F178F160F120F14831203138501860111
:101D0C0087010B308316031385003F30860010309B
:101D1C008700831603178801890108148815831618
:101D2C000313811395128312861E992EF03094059D
:101D3C00141283160313141794138312031394169B
:101D4C00831603138C1183120313851605168B153A
:101D5C000B17831603130C148B1796163030831243
:101D6C00031390000B308F00DB308E0010141F1308
:101D7C009F13831603139F139F121F1283120313B7
:101D8C00EA01EB0183160313B501B601B701B801E3
:101D9C000800023083120313A0000030A1000530AC
:101DAC00A2000030A3000A128A1585230A128A1594
:101DBC0020300A128A1591270A128A150D308312C7
:101DCC000313B600FB30B500B50BEA2EB60BEA2EAA
:101DDC000E300A128A152D240A128A150238831223
:101DEC000313B5003508A7000E300A128A15DF233D
:101DFC000A128A1540300A128A1591270A128A157E
:101E0C000E300A128A152D240A128A150239031D66
:101E1C00192F831603132C080319062F0A128A1183
:101E2C0064230A128A1560300A128A1591270A1245
:101E3C008A15A53083120313B500B50B232F262F5B
:101E4C0083120313ED01ED0A080003308312031310
:101E5C00A0000030A1000530A2000030A3000A123F
:101E6C008A1585230A128A1520300A128A159127A1
:101E7C000A128A1583120313ED01E101E201E30159
:101E8C00E4016408803AFF0080307F02031D502F6C
:101E9C001E3063020318742F831203136308BA3EB7
:101EAC008400831380010130E3070318E40A003037
:101EBC00E407472F0A128A1567230A128A15831220
:101ECC000313DF006108BA3E84005F0883138000AF
:101EDC000130E1070318E20A0030E2078312031312
:101EEC00861D7D2F831603132D080319602F0D30CB
:101EFC0083120313E000FB30DF00DF0B832FE00BBA
:101F0C00832F00300A128A1591270A128A150A1299
:101F1C008A115420080083120313AC000512003000
:101F2C000A128A152D240A128A1583120313AB0088
:101F3C002B08AD00E92F2D081F398038AB002B087A
:101F4C00A70000300A128A15DF230A128A15FC2F0B
:101F5C00831203132D081F396038AB002B08A70020
:101F6C0000300A128A15DF230A128A15FC2F8312FD
:101F7C0003132D081F394038AB002B08A700003085
:101F8C000A128A15DF230A128A15FC2F83120313F7
:101F9C002D081F392038AB002B08A70000300A127F
:101FAC008A15DF230A128A15FC2F831203132D08BE
:101FBC001F39AB002B08A70000300A128A15DF234B
:101FCC000A128A15FC2F831203132C08003A0319EA
:101FDC00DB2F203A0319CC2F603A0319BD2F203A7E
:101FEC000319AE2FE03A0319A12FFC2F8312031310
:041FFC0005160800BE
:02400E0014E0BC
:00000001FF
