:100000000A128A1112280134FE00030EF8000408B7
:10001000F9000A08FA00831203137F08FB000A1292
:100020008A11EF2C0A128A111528831603130A125B
:100030008A1585230A128A11D8000A128A15862386
:100040000A128A11D900831203130A128A1103209B
:100050000A128A11EF00831790308400B8300A1218
:100060008A1593230A128A118313A0308400D83092
:100070000A128A159323E801E901EA01EB01EC0178
:10008000ED01EE01FC01FD0183010A128A11BF2E70
:10009000693083120313BC003C08AE00BA300A1268
:1000A0008A1588260A128A11003A031973280A123F
:1000B0008A15A4230A128A11063A031D73280130F7
:1000C00083120313E8000030E90083160313B10123
:1000D000B201443083120313B5008030B6000A1217
:1000E0008A111D240800713083120313BC003C08E0
:1000F000AE00BA300A128A1588260A128A11003A0E
:1001000003199E280A128A15A4230A128A11073A93
:10011000031D9E28013083120313E8000030E9001C
:1001200083160313B101B2014E3083120313B500DD
:100130008030B6000A128A111D2408004430831250
:100140000313BC003C08AE00BA300A128A15882698
:100150000A128A11003A0319C0280A128A15A42328
:100160000A128A11043A031DC028013083120313B6
:10017000E8000030E90083160313B101B201080062
:100180004E3083120313BC003C08AE00BA300A1292
:100190008A1588260A128A11003A0319E2280A12DF
:1001A0008A15A4230A128A11053A031DE228013098
:1001B00083120313E8000030E90083160313B10132
:1001C000B2010800963083120313BC003C08AE0055
:1001D000BA300A128A1588260A128A11003A0319BF
:1001E00008298312031307150A30A0000030A1006C
:1001F0000A128A15D9240A128A11831203130711CD
:100200000530A0000030A1000A128A15D924080088
:10021000883083120313BC003C08AE00BA300A12C7
:100220008A1588260A128A11003A03192E29831288
:10023000031387140A30A0000030A1000A128A15A7
:10024000D9240A128A118312031387100530A000E3
:100250000030A1000A128A15D924080079308312CF
:100260000313BC003C08AE00BA300A128A15882677
:100270000A128A11003A0319502900300A128A150D
:1002800021250A128A1183120313BC003C08BD0009
:100290003D30B5000030B6000A128A111D24080056
:1002A0008F3083120313BC003C08AE00BA300A1230
:1002B0008A1588260A128A11003A03197229033016
:1002C0000A128A1521250A128A1183120313BC000F
:1002D0003C08C5004530B5000030B6000A128A114E
:1002E0001D240800583083120313BC003C08AE00E4
:1002F000BA300A128A1588260A128A11003A03199E
:100300009D290A128A154A250A128A11831203139B
:100310006C08031993293630B5008030B6000A12F4
:100320008A111D240800283083120313B500803081
:10033000B6000A128A111D240800813083120313AB
:10034000BC003C08AE00BA300A128A1588260A1290
:100350008A11003A0319C329831203136F03031D83
:10036000B929AC30B5008030B6000A128A111D24BC
:100370000800A83083120313B5008030B6000A12BB
:100380008A111D240800613083120313BC003C084D
:10039000AE00BA300A128A1588260A128A11003A6B
:1003A0000319DC29831203136F03031DD929EF01FD
:1003B0000800EF01EF0A0800A33083120313BC000A
:1003C0003C08AE00BA300A128A1588260A128A1131
:1003D000003A0319FE297C080A128A15FD240A1224
:1003E0008A1183120313BC003C08CD004D30B500C8
:1003F0000030B6000A128A111D2408009D308312B5
:100400000313BC003C08AE00BA300A128A158826D5
:100410000A128A11003A03190800C0300A128A1120
:100420003C270A128A11831203132708DE002608CC
:10043000DD005D08BC003C08D5005530B50000303B
:10044000B6000A128A111D240A128A11831203139C
:100450005D08BC003C08A0007C080A128A159F2594
:10046000080083120313B101B20183160313B9010B
:10047000AF01B001063083120313B0001330AF0098
:10048000B130AE00AE0B422AAF0B422AB00B422A6B
:10049000492A83120313B301B4013408803AFF00E0
:1004A00080307F02031D562A0D3033020318312B92
:1004B0008312031333080E3E84000A128A110A269F
:1004C0000A128A11AE002E08A70006300A128A15F9
:1004D0004C240A128A11831203133308013E84004C
:1004E0000A128A110A260A128A11AE002E08A700E3
:1004F00007300A128A154C240A128A118312031338
:1005000033081B3E84000A128A110A260A128A1135
:10051000AE002E08A70008300A128A154C240A12D1
:100520008A118312031333080E3E84000A128A11C3
:100530000A260A128A11AE002E08A70009300A12F4
:100540008A154C240A128A11831203133308013EC0
:1005500084000A128A110A260A128A11AE002E0895
:10056000A7000A300A128A154C240A128A11831233
:10057000031333081B3E84000A128A110A260A124A
:100580008A11AE002E08A7000B300A128A154C24DF
:100590000A128A110E300A128A159A240A128A1136
:1005A000023883120313AE002E08A7000E300A1281
:1005B0008A154C240A128A1140300A128A15912792
:1005C0000A128A1183120313B101B20183120313B9
:1005D0003208803AFF0080307F02031DF12A053087
:1005E000310203181E2B0E300A128A159A240A12A1
:1005F0008A11023903190E2B83160313B901B90AA4
:1006000083120313340883160313B00083120313F9
:10061000330883160313AF00013008000130831242
:100620000313B1070318B20A0030B207F930AE0065
:100630000000AE0B182B1C2B0000E62A01308312A1
:100640000313B3070318B40A0030B4073408803A20
:10065000FF0080307F02031D2F2B0D303302031C5F
:10066000582A00300800303083120313B5003508D3
:10067000A70000300A128A154C240A128A11A830E9
:1006800083120313B5003508A70001300A128A153A
:100690004C240A128A11093083120313B50035085D
:1006A000A70002300A128A154C240A128A11073058
:1006B00083120313B5003508A70003300A128A1508
:1006C0004C240A128A110A3083120313B50035082C
:1006D000A70005300A128A154C240A128A11B93073
:1006E00083120313B5003508A7000D300A128A15CE
:1006F0004C240A128A11113083120313B5003508F5
:10070000A7000E300A128A154C240A128A11A3304F
:1007100083120313B5003508A70010300A128A159A
:100720004C240A128A113E3083120313B500350897
:10073000A70012300A128A154C240A128A1153306B
:1007400083120313B5003508A70016300A128A1564
:100750004C240A128A11593083120313B50035084C
:10076000A70017300A128A154C240A128A114E303B
:1007700083120313B5003508A70018300A128A1532
:100780004C240A128A11433083120313B500350832
:10079000A70019300A128A154C240A128A117230E5
:1007A00083120313B5003508A7001A300A128A1500
:1007B0004C240A128A113C3083120313B500350809
:1007C000A7001B300A128A154C240A128A118030A5
:1007D00083120313B5003508A7001F300A128A15CB
:1007E0004C240A128A1100300A128A159A240A121D
:1007F0008A11013883120313B5003508A7000030B1
:100800000A128A154C240A128A110A128A113122FC
:100810000A128A11013A031D182C013083120313A6
:10082000A6000030A7000A128A15CF250A128A11E5
:1008300000300A128A15912708000430831203132E
:10084000A0000030A1000530A2000030A3000A1271
:100850008A15F2230A128A1183120313BA01BB010B
:1008600020300A128A1591270A128A110D3083123C
:100870000313B800FB30B700B70B3C2CB80B3C2C73
:10088000412C0E300A128A159A240A128A11023853
:1008900083120313B7003708A7000E300A128A1517
:1008A0004C240A128A1140300A128A1591270A1222
:1008B0008A110E300A128A159A240A128A110239F4
:1008C000031D6C2C831603132E080319592C0A12CE
:1008D0008A1131220A128A1180300A128A15912750
:1008E0000A128A11A63083120313B700B70B762CB5
:1008F000000053300A128A15AD230A128A115930AA
:100900000A128A15AD230A128A114E300A128A156C
:10091000AD230A128A1143300A128A15AD230A1236
:100920008A11831203133A083507B8003608B70056
:100930000318B70ABA1BB703831203133708B900A9
:100940003908FF00380884000A128A1100260A12AA
:100950008A11003A0319D72C831203133A0835077A
:10096000B8003608B7000318B70ABA1BB7038312DA
:1009700003133708B9003908FF00380884000A1249
:100980008A1100260A128A110A128A15AD230A1248
:100990008A11013083120313BA070318BB0A00300F
:1009A000BB07912C831603132E08031DDA2C831228
:1009B000061ED22C03308312B700B70BDD2C00309B
:1009C0000A128A1591270A128A11F9308312031329
:1009D000B7000000B70BE92CED2C00000800861AC8
:1009E0000A2D68086904031D0A2D0A128A159B2323
:1009F0000A128A11F5000230750203180A2D01301F
:100A000083120313E8000030E90083160313B101D9
:100A1000B201102D83120313861A102DEE01EE0A77
:100A200083120C1CB42D10100B308F00DB308E00A5
:100A300068036904031D422D831603135908F60049
:100A40005808F5000310F50DF60D3208803AF7004E
:100A50007608803A7702031D2F2D7508310203189E
:100A6000422D013083160313B1070318B20A003078
:100A7000B2078312031387183F2D8714622D871C3A
:100A8000622D612D8312031368036904031D622D17
:100A9000831603135908F6005808F5000310F50DE6
:100AA000F60D3208803AF7007608803A7702031D87
:100AB0005B2D75083102031C622D83120313E801BC
:100AC000E9018710013083160313B5070318B60A2E
:100AD0000030B6073608803AFF0080307F02031DE1
:100AE000732D02303502031C862D83160313B501C6
:100AF000B601013083120313EA070318EB0A003032
:100B0000EB070A128A1502260A128A1183120313AE
:100B10006B08803AFF0080307F02031D912D3C302E
:100B20006A02031C9F2D83120313EA01EB010130BB
:100B300083160313B7070318B80A0030B8078316E3
:100B400003133808803AFF0080307F02031DAA2D6E
:100B50003C303702031CB02D83160313B701B801D4
:100B60008312031310140C100B108B177B08FF005B
:100B70007A088A0079088400780E8300FE0E7E0EC3
:100B800009001E30831203136A066B040319071948
:100B9000CE2D0A128A154A250A128A1183120313CE
:100BA0006C030319851CE32D0719E32D071500308D
:100BB000A000A1007830A2000030A3000A128A151C
:100BC000F2230A128A11831603132A080319080054
:100BD0000A128A154A250A128A11831203136C0815
:100BE000031D851CFE2D0030A000A1007830A2005E
:100BF0000030A3000A128A15F2230800071108002A
:100C0000FF1B0A2E83137F1883170008840A031919
:100C1000FF0A080006308A000408840A82070034AC
:100C20003F3447344F3457345F3477347E347F3425
:100C300086348734373467346F344F3459346334EF
:100C40006D34773495349F349F34A934A9344534B6
:100C500081348B3418341B341E34213424342D3425
:100C60007B3430347E343334153427342A344E34D4
:100C70006F34743420344434613472346B3420342F
:100C80002034203420342034003449347434273460
:100C9000733420344434613472346B34203420345F
:100CA0002034203400344E343134533454344134FD
:100CB000523454344534443400344E343234533492
:100CC000543441345234543445344434003444347C
:100CD000413452344B34433441344C344334003483
:100CE0004334483453345434413454344534003458
:100CF0004E34313442344C3449344E344B34003465
:100D00004E34323442344C3449344E344B34003453
:100D1000533445344E345334563441344C34003417
:100D2000533454344134543445343F34003446341D
:100D30004C344134533448344234003450344F340A
:100D40005434563441344C34003446344C344134F9
:100D5000533448344C3400345334453454344434DC
:100D60005634003452344D34443456340034503404
:100D700049344334003450346F34743400340A122C
:100D80008A11AD270A128A11053083120313E70076
:100D90000F30E600F430E500E50BCC2EE60BCC2E50
:100DA000E70BCC2E0A128A1133230A128A110A1277
:100DB0008A15A4230A128A11003A031DE42E0A128E
:100DC0008A1587230A128A110A128A15A4230A1285
:100DD0008A11013A031DF12E0A128A1532240A12D1
:100DE0008A110A128A15A4230A128A11023A031DD3
:100DF000FE2E0A128A15B9230A128A110A128A15BE
:100E0000A4230A128A11033A031D0B2F0A128A1512
:100E100019240A128A110A128A15A4230A128A11A5
:100E2000043A031D182F0A128A1566240A128A1121
:100E30000A128A15A4230A128A11053A031D252FC6
:100E40000A128A1580240A128A11831203136D086C
:100E5000031D2F2F0A128A15CE260A128A11831219
:100E60000313061ED72E6D080319D72E0A128A15F2
:100E70002B270A128A11D72E83120313AD002D08D7
:100E80008400203083130006031D4B2F0130A8007F
:100E90002808AD073F2F2D088400093000060319EC
:100EA000462FAB01AC01AA012D0884002D300006AD
:100EB000031D5F2F0130A8002808AA07652F2D0801
:100EC00084002B300006031D692F0130A80028087C
:100ED000AD072D08840000080A128A15E2230A12C1
:100EE0008A11031C972F831203132C08A1002B08CF
:100EF000A0000A30A2000030A3000A128A15B6240E
:100F00000A128A11831203132D0884008313000828
:100F10002007A80021080318210AA9002808D03EAC
:100F2000AB0029080318013EFF3EAC00652F831279
:100F300003132A080319A82F2B09A8002C09A900BC
:100F4000A80A0319A90A2808A6002908A70008006A
:100F50002C08A7002B08A6000800831603130F1700
:100F60008F160F120F148312031385018601870158
:100F70000B308316031385003F3086001030870046
:100F80008316031788018901081488158316031333
:100F9000811395128312861ECA2FF0309405141205
:100FA00083160313141794138312031394168316D2
:100FB00003138C1183120313851605168B150B175B
:100FC000831603130C148B179616303083120313F9
:100FD00090000B308F00DB308E0010141F139F1316
:100FE000831603139F139F121F1283120313EA0128
:100FF000EB0183160313B501B601B701B801080070
:10170A00583402340A128A11C125080000300A121C
:10171A008A15C62383120313130808006400800184
:10172A00840A0406031900340406942B8312031353
:10173A0006090739F0007008F100710808008312E1
:10174A00031306090739A0002008A1002108080090
:10175A0083120313A300851223080A128A15C623CB
:10176A0083120313851608000A128A11C1250A1268
:10177A008A1583120313071DC42B871408008710C8
:10178A00080083120313A2001308A0002008A10076
:10179A008C11220893008C1DD02B8C110800831207
:1017AA00031385120A128A158B2383120313A300CB
:1017BA002308A40085162408080083120313A10035
:1017CA00A0013A3021020318F02B30302102031C09
:1017DA00F02BA001A00A200C080083120313200892
:1017EA00A4002407A03E8400220883138000840AF0
:1017FA00230880002008AA3E840080010800831282
:10180A000313A20022088400831300082006031D84
:10181A00102C22080800220884000130A2070008C0
:10182A00031D072C003008000A128A11C1250A126A
:10183A008A15831203136C0803190800851C080013
:10184A0068086904031D08000130E8000030E90057
:10185A0083160313B101B20108001E308312031369
:10186A006A066B04031907193F2C0A128A154A25BE
:10187A000A128A158312031368036904031D4A2C8A
:10188A006C03031D4A2C0715080007110800831270
:10189A000313AA0005122A08A8002807A900290884
:1018AA00AA002A080A128A15C6230A128A1583125E
:1018BA00031327080A128A15C6238312031305166F
:1018CA000800831203136E0803197C2C6930B500D3
:1018DA008030B6000A128A111D240A128A150A12C9
:1018EA008A15CE260A128A1583120313EE010A12EA
:1018FA008A11C1250800831203136E080319962C56
:10190A007130B5008030B6000A128A111D240A12FD
:10191A008A150A128A15CE260A128A158312031309
:10192A00EE010A128A11C125080083120313A600C8
:10193A0005122608A30023074038A4002408A6009D
:10194A0026080A128A15C6230A128A150A128A1545
:10195A008B2383120313A3002308A5000516250869
:10196A00080083120313A401A501201CC22C22081B
:10197A00A4070318A50A2308A50701300310A20D1E
:10198A00A30DFF3E031DC32C01300310A10CA00CB4
:10199A00FF3E031DCA2C20082104031DBA2C25086A
:1019AA00A1002408A000080083120313A401A501C2
:1019BA002508803AA2002108803A2202031DE72C5A
:1019CA002008240203180800823083120313A3009C
:1019DA00DD30A200A20BEF2CA30BEF2CF42C01306C
:1019EA0083120313A4070318A50A0030A507DD2CE8
:1019FA0083120313A100032D8312031364008316B9
:101A0A0003178C18012D831203132108831203175D
:101A1A008D003F3083120313A0002008831603179A
:101A2A008C050C1403100C18031400300318013031
:101A3A00831203170C08080083120313A700270850
:101A4A00A600A60DA60D1F082606C33926069F0066
:101A5A001F140130A0000030A1000A128A15D924EF
:101A6A000A128A15831203139F140130A000003052
:101A7A00A1000A128A15D9240A128A15831203139D
:101A8A009F18432D1F101E08080083120313071006
:101A9A006F03031D572D03300A128A1521250A12D6
:101AAA008A155D2D7C080A128A15FD240A128A15E8
:101ABA0083120313A8002808A90000300A128A1505
:101ACA0021250A128A158312031329020318702D7D
:101ADA00EC01EC0A712DEC010710080083120313C4
:101AEA00A6002608A2002208A700270884000A12D6
:101AFA008A110A260A128A15003A0319892D013019
:101B0A00A2002208A7077A2D2608A2008030A30087
:101B1A00A209A309A20A0319A30A2708A40080306C
:101B2A00A50022082407A00023080318230A250772
:101B3A00A100080083120313A200831603178C184E
:101B4A00A22D831203132208831203178D00831216
:101B5A0003132008831203178C003F3083120313E8
:101B6A00A1002108831603178C058312031303109F
:101B7A008B1B03148B13831603170C1555308D001A
:101B8A00AA308D008C140C1183120313031C080055
:101B9A008B170800013083120313A9000030AA0032
:101BAA002708803AA8002A08803A2802031DDF2D58
:101BBA0029082602031C0800831203138714023023
:101BCA00A0000030A1000A128A15D9240A128A1527
:101BDA008312031387100630A0000030A1000A12F6
:101BEA008A15D9240A128A15013083120313A90708
:101BFA000318AA0A0030AA07D52DF301F4017408C4
:101C0A00803AFF0080307F02031D0D2E05307302DB
:101C1A00031808007308F0007007A03E84008313BD
:101C2A000008F100840A0008F2007208803AFF00F6
:101C3A0080307F02031D232E01307102031C372ED0
:101C4A007308F0007007A03E8400FF3083138007FA
:101C5A00840F00080318000AFF00FF307F07800086
:101C6A0084033D2E7308AA3E840083138001800AF0
:101C7A000130F3070318F40A0030F407042E831224
:101C8A000313AD000130A9020030031CAA03AA0203
:101C9A00290A03192A0A0319852E2D088400831399
:101CAA0000080319662E280884000A128A110A26D7
:101CBA000A128A15AB002D08840000082B060319A6
:101CCA007C2E280884000A128A110A26AB00AC016D
:101CDA00AB09AC09AB0A0319AC0A2D088400000849
:101CEA002B07A8002C0803182C0AA90008000130A9
:101CFA00AB002B08AD070130AB002B08A807472E15
:101D0A00A801A901080083120313B200C32E2E08EA
:101D1A00AF002F08A8002E080A128A1573250A1286
:101D2A008A15831203132108AA002008A900320881
:101D3A000A128A1544260A128A15831203132808DE
:101D4A002904031DAA2E320808002E0884000A124C
:101D5A008A110A260A128A15AF00B0012F08A000BC
:101D6A003008A1003208013E0A128A1504240A1218
:101D7A008A1583120313B1003108B200320803191D
:101D8A00CC2E3208840083130008031D8C2E0030E9
:101D9A000800023083120313A0000030A1000530AE
:101DAA00A2000030A3000A128A15F2230A128A1529
:101DBA0020300A128A1591270A128A150D308312C9
:101DCA000313B600FB30B500B50BE92EB60BE92EAE
:101DDA00EE2E0E300A128A159A240A128A15023831
:101DEA0083120313B5003508A7000E300A128A15AC
:101DFA004C240A128A1540300A128A1591270A12AF
:101E0A008A150E300A128A159A240A128A1502397C
:101E1A00031D192F831603132C080319062F0A1200
:101E2A008A1131220A128A1560300A128A159127FC
:101E3A000A128A15A63083120313B500B50B232F95
:101E4A00000083120313ED01ED0A08000330831228
:101E5A000313A0000030A1000530A2000030A30047
:101E6A000A128A15F2230A128A1520300A128A15D2
:101E7A0091270A128A1583120313ED01E101E20187
:101E8A00E301E4016408803AFF0080307F02031D09
:101E9A00502F1E3063020318742F83120313630832
:101EAA00BA3E8400831380010130E3070318E40A71
:101EBA000030E407472F0A128A15D4230A128A151A
:101ECA0083120313DF006108BA3E84005F0883139C
:101EDA0080000130E1070318E20A0030E2078312AA
:101EEA000313861D7D2F831603132D080319602FF4
:101EFA000D308312E000FB30DF00DF0B822FE00B96
:101F0A00822F872F00300A128A1591270A128A1502
:101F1A000A128A114820080083120313AC00051222
:101F2A0000300A128A159A240A128A158312031398
:101F3A00AB002B08AD00E92F2D081F398038AB0004
:101F4A002B08A70000300A128A154C240A128A1597
:101F5A00FC2F831203132D081F396038AB002B089E
:101F6A00A70000300A128A154C240A128A15FC2F7F
:101F7A00831203132D081F394038AB002B08A70022
:101F8A0000300A128A154C240A128A15FC2F831271
:101F9A0003132D081F392038AB002B08A700003087
:101FAA000A128A154C240A128A15FC2F831203136B
:101FBA002D081F39AB002B08A70000300A128A151A
:101FCA004C240A128A15FC2F831203132C08003A98
:101FDA000319DB2F203A0319CC2F603A0319BD2FBE
:101FEA00203A0319AE2FE03A0319A12FFC2F8312CE
:061FFA00031305160800A8
:02400E0014E0BC
:00000001FF
