:060000000A128A11122809
:10000800FE00030EF8000408F9000A08FA0083123B
:1000180003137F08FB000A128A11152D0A128A1190
:100028001528831603130A128A11FE270A128A1149
:10003800D7000A128A11FF270A128A11D8008312E0
:1000480003130A128A11FD250A128A11EF00831779
:1000580090308400B8300A128A1577230A128A1160
:100068008313A0308400D7300A128A157723E80159
:10007800E901EA01EB01EC01ED01EE01FC01FD01F2
:1000880083010A128A11C92E733083120313BC002C
:100098003C08AE00B9300A128A11B8270A128A1130
:1000A800003A03197E280A128A1588230A128A112F
:1000B800063A031D7E28013083120313E80000303E
:1000C800E90083160313B101B201643083120313EC
:1000D800A0000030A1000A128A156C240A128A11A5
:1000E800283083120313B5008030B6000A128A1133
:1000F800432408007B3083120313BC003C08AE0085
:10010800B9300A128A11B8270A128A11003A03195B
:10011800B4280A128A1588230A128A11073A031D7D
:10012800B428013083120313E8000030E900831675
:100138000313B101B201643083120313A00000302D
:10014800A1000A128A156C240A128A113730831208
:100158000313B5008030B6000A128A114324080040
:10016800283083120313BC003C08AE00B9300A12D1
:100178008A11B8270A128A11003A0319DF280A12CD
:100188008A1588230A128A11043A031DDF280130D0
:1001980083120313E8000030E90083160313B1014A
:1001A800B201643083120313A0000030A1000A12C8
:1001B8008A156C240800373083120313BC003C08EE
:1001C800AE00B9300A128A11B8270A128A11003A09
:1001D80003190A290A128A1588230A128A11053A6C
:1001E800031D0A29013083120313E8000030E900D7
:1001F80083160313B101B201643083120313A00004
:100208000030A1000A128A156C240800A03083125D
:100218000313BC003C08AE00B9300A128A11B82793
:100228000A128A11003A0319302983120313071599
:100238000A30A0000030A1000A128A156C240A12A4
:100248008A118312031307110530A0000030A100A2
:100258000A128A156C240800923083120313BC001A
:100268003C08AE00B9300A128A11B8270A128A115E
:10027800003A031956298312031387140A30A00081
:100288000030A1000A128A156C240A128A118312FE
:10029800031387100530A0000030A1000A128A1548
:1002A8006C240800833083120313BC003C08AE00A2
:1002B800B9300A128A11B8270A128A11003A0319AA
:1002C800782900300A128A15D6240A128A11831254
:1002D8000313BC003C08BD003D30B5000030B6003B
:1002E8000A128A1143240800993083120313BC00B0
:1002F8003C08AE00B9300A128A11B8270A128A11CE
:10030800003A03199A2903300A128A15D6240A12C8
:100318008A1183120313BC003C08C5004530B500A0
:100328000030B6000A128A11432408006230831292
:100338000313BC003C08AE00B9300A128A11B82772
:100348000A128A11003A0319C5290A128A15FF24CC
:100358000A128A11831203136D080319BB2954303A
:10036800B5008030B6000A128A11432408004630CE
:1003780083120313B5008030B6000A128A11432491
:1003880008008B3083120313BC003C08AE00B93060
:100398000A128A11B8270A128A11003A0319EB299E
:1003A800831203136F03031DE129B630B5008030B3
:1003B800B6000A128A1143240800B23083120313CC
:1003C800B5008030B6000A128A11432408006B3049
:1003D80083120313BC003C08AE00B9300A128A111C
:1003E800B8270A128A11003A0319042A8312031340
:1003F8006F03031D012AEF010800EF01EF0A08004F
:10040800AD3083120313BC003C08AE00B9300A12A9
:100418008A11B8270A128A11003A0319262A7C0879
:100428000A128A15B2240A128A1183120313BC0015
:100438003C08CD004D30B5000030B6000A128A11D4
:1004480043240800A73083120313BC003C08AE0005
:10045800B9300A128A11B8270A128A11003A031908
:100468000800BF300A128A1147270A128A1183121C
:1004780003132708DE002608DD005D08BC003C08E1
:10048800D5005530B5000030B6000A128A11432451
:100498000A128A11831203135D08BC003C08A000ED
:1004A8007C080A128A155425080083120313B10127
:1004B800B201EC0183160313AF01B00106308312B9
:1004C8000313B0001330AF00AD30AE00AE0B6A2A94
:1004D800AF0B6A2AB00B6A2A83120313B301B40163
:1004E8003408803AFF0080307F02031D7D2A0D30DA
:1004F80033020318572B8312031333080E3E84006C
:100508000A128A110A260A128A11AE002E08A700BA
:1005180006300A128A1552240A128A11831203130A
:100528003308013E84000A128A110A260A128A1127
:10053800AE002E08A70007300A128A1552240A12A4
:100548008A118312031333081B3E84000A128A118E
:100558000A260A128A11AE002E08A70008300A12CD
:100568008A1552240A128A118312031333080E3E85
:1005780084000A128A110A260A128A11AE002E086D
:10058800A70009300A128A1552240A128A11831206
:1005980003133308013E84000A128A110A260A123C
:1005A8008A11AE002E08A7000A300A128A155224B2
:1005B8000A128A118312031333081B3E84000A129D
:1005C8008A110A260A128A11AE002E08A7000B30DB
:1005D8000A128A1552240A128A110E300A128A1136
:1005E800E1250A128A11023883120313AE002E087D
:1005F800A7000E300A128A1552240A128A114030B6
:100608000A128A1591270A128A1183120313B1015B
:10061800B201831203133208803AFF0080307F0250
:10062800031D182B053031020318442B0E300A1213
:100638008A11E1250A128A1102390319332B831210
:100648000313EC01EC0A340883160313B000831279
:100658000313330883160313AF0001300800013079
:1006680083120313B1070318B20A0030B207C73068
:1006780083120313AE00402BAE0B3F2B432B0D2BE5
:10068800013083120313B3070318B40A0030B40708
:100698003408803AFF0080307F02031D552B0D304F
:1006A8003302031C7F2A0030080030308312031302
:1006B800B5003508A70000300A128A1552240A121C
:1006C8008A11A83083120313B5003508A70001303A
:1006D8000A128A1552240A128A1109308312031346
:1006E800B5003508A70002300A128A1552240A12EA
:1006F8008A11073083120313B5003508A7000330A9
:100708000A128A1552240A128A110A308312031314
:10071800B5003508A70005300A128A1552240A12B6
:100728008A11B93083120313B5003508A7000D30BC
:100738000A128A1552240A128A11113083120313DD
:10074800B5003508A7000E300A128A1552240A127D
:100758008A11A33083120313B5003508A70010309F
:100768000A128A1552240A128A113E308312031380
:10077800B5003508A70012300A128A1552240A1249
:100788008A11533083120313B5003508A7001630B9
:100798000A128A1552240A128A1159308312031335
:1007A800B5003508A70017300A128A1552240A1214
:1007B8008A114E3083120313B5003508A70018308C
:1007C8000A128A1552240A128A114330831203131B
:1007D800B5003508A70019300A128A1552240A12E2
:1007E8008A11723083120313B5003508A7001A3036
:1007F8000A128A1552240A128A113C3083120313F2
:10080800B5003508A7001B300A128A1552240A12AF
:100818008A11803083120313B5003508A7001F30F2
:100828000A128A1552240A128A1100300A128A11F1
:10083800E1250A128A11013883120313B50035081D
:10084800A70000300A128A1552240A128A110A12C5
:100858008A1159220A128A11013A031D3E2C0130CD
:1008680083120313A6000030A7000A128A158425F4
:100878000A128A1100300A128A15912708000430DA
:1008880083120313A0000030A1000530A20000303D
:10089800A3000A128A15F8230A128A118312031375
:1008A800BA01BB0120300A128A1591270A128A114F
:1008B8000D3083120313B800FB30B700B70B622C5E
:1008C800B80B622C0E300A128A11E1250A128A111D
:1008D800023883120313B7003708A7000E300A1234
:1008E8008A1552240A128A1140300A128A15912751
:1008F8000A128A110E300A128A11E1250A128A1187
:100908000239031D912C831603132E0803197E2C1C
:100918000A128A1159220A128A1180300A128A157B
:1009280091270A128A11A53083120313B700B70B57
:100938009B2C9E2C53300A128A1591230A128A1175
:1009480059300A128A1591230A128A114E300A1256
:100958008A1591230A128A1143300A128A159123A3
:100968000A128A11831203133A083507B8003608A9
:10097800B7000318B70ABA1BB70383120313370863
:10098800B9003908FF00380884000A128A110026C5
:100998000A128A11003A0319FC2C831203133A082D
:1009A8003507B8003608B7000318B70ABA1BB703EB
:1009B800831203133708B9003908FF003808840088
:1009C8000A128A1100260A128A110A128A1591231C
:1009D8000A128A11013083120313BA070318BB0ADB
:1009E8000030BB07B62C831603132E08031DFF2CFB
:1009F8008312061EF72C023083120313B700B70BBD
:100A0800032D000000300A128A1591270A128A1154
:100A1800C73083120313B700112DB70B102D142DF7
:100A28000800861A2F2D68086904031D2F2D0A1245
:100A38008A157F230A128A11F500023075020318FD
:100A48002F2D013083120313E8000030E9008316CC
:100A58000313B101B201831203130C1CD42D10101F
:100A68000B308F00DB308E0068036904031D622D94
:100A7800831603135808F6005708F5000310F50D00
:100A8800F60D3208803AF7007608803A7702031D9F
:100A98004F2D750831020318622D01308316031398
:100AA800B1070318B20A0030B2078312031387187C
:100AB8005F2D8714822D871C822D812D83120313AD
:100AC80068036904031D822D831603135808F60072
:100AD8005708F5000310F50DF60D3208803AF700B7
:100AE8007608803A7702031D7B2D75083102031CB6
:100AF800822D83120313E801E90187100130831660
:100B08000313B5070318B60A0030B6073608803A4B
:100B1800FF0080307F02031D932D02303502031C35
:100B2800A62D83160313B501B601013083120313F2
:100B3800EA070318EB0A0030EB070A128A15F625B4
:100B48000A128A11831203136B08803AFF0080305F
:100B58007F02031DB12D3C306A02031CBF2D831296
:100B68000313EA01EB01013083160313B7070318D7
:100B7800B80A0030B807831603133808803AFF0014
:100B880080307F02031DCA2D3C303702031CD02D54
:100B980083160313B701B8018312031310140C1042
:100BA8000B108B177B08FF007A088A0079088400ED
:100BB800780E8300FE0E7E0E090083120313A60032
:100BC80005122608A30023074038A4002408A6001D
:100BD80026080A128A15AA230A128A110A128A15E5
:100BE8006F2383120313A3002308A5000516250805
:040BF80008000134BC
:100C0000FF1B0A2E83137F1883170008840A031919
:100C1000FF0A080006308A000408840A82070034AC
:100C20003F3447344F3457345F3477347E347F3425
:100C300086348734373467346F344F3459346334EF
:100C40006D34773495349F349F34A934A9344534B6
:100C500081348B3418341B341E34213424342D3425
:100C60007B3430347E343334153427342A344E34D4
:100C7000313442344C3449344E344B34533454348C
:100C80004134523454344534443400344E343234D4
:100C900042344C3449344E344B345334543441345C
:100CA000523454344534443400344E346F34743444
:100CB00020344434613472346B3420342034203492
:100CC00020342034003449347434273473342034CD
:100CD0004434613472346B34203420342034203472
:100CE00000344434413452344B34433441344C3472
:100CF000433400344334483453345434413454344A
:100D0000453400344E34313442344C3449344E345A
:100D10004B3400344E34323442344C3449344E3443
:100D20004B340034533445344E3453345634413408
:100D30004C340034533454344134543445343F3407
:100D4000003446344C344134533448344234003453
:100D500050344F345434563441344C3400344634D7
:100D60004C344134533448344C34003453344534D7
:100D7000543444345634003452344D3444345634AC
:100D80000034503449344334003450346F347434B4
:100D900000340A128A157C260A128A110530831241
:100DA0000313E7000F30E600F030E500E50BD62E28
:100DB000E60BD62EE70BD62E00000A128A11592315
:100DC0000A128A110A128A1588230A128A11003A15
:100DD000031DEF2E0A128A156B230A128A110A12BA
:100DE0008A1588230A128A11013A031DFC2E0A1261
:100DF0008A1538240A128A110A128A1588230A12BF
:100E00008A11023A031D092F0A128A159D230A121C
:100E10008A110A128A1588230A128A11033A031DBD
:100E2000162F0A128A151F240A128A110A128A150D
:100E300088230A128A11043A031D232F0A128A15E5
:100E4000D6230A128A110A128A1588230A128A11D5
:100E5000053A031D302F0A128A15E7230A128A1158
:100E6000831203136E08031D3A2F0A128A15CF2628
:100E70000A128A1183120313061EE22E6E0803194A
:100E8000E22E0A128A152B270A128A11E22E8312E9
:100E90000313AD002D088400203083130006031DCA
:100EA000562F0130A8002808AD074A2F2D088400CE
:100EB000093000060319512FAB01AC01AA012D081E
:100EC00084002D300006031D6A2F0130A800280879
:100ED000AA07702F2D0884002B300006031D742FE5
:100EE0000130A8002808AD072D08840000080A1268
:100EF0008A15C6230A128A11031CA22F8312031318
:100F00002C08A1002B08A0000A30A2000030A3008A
:100F10000A128A158F240A128A11831203132D08CC
:100F20008400831300082007A80021080318210A61
:100F3000A9002808D03EAB0029080318013EFF3E57
:100F4000AC00702F831203132A080319B32F2B0947
:100F5000A8002C09A900A80A0319A90A2808A600B4
:100F60002908A70008002C08A7002B08A6000800E5
:100F700083120313B200F32F2E08AF002F08A8002E
:100F80002E080A128A1528250A128A1183120313C1
:100F90002108AA002008A90032080A128A1538265A
:100FA0000A128A118312031328082904031DDA2F59
:100FB000320808002E0884000A128A110A260A1232
:100FC0008A11AF00B0012F08A0003008A10032083C
:100FD000013E0A128A150A240A128A118312031387
:100FE000B1003108B20032080319FC2F3208840026
:100FF00083130008031DBC2F00300800583402344E
:1016D6000A128A15B725080000300A128A15AA23AD
:1016E600831203131308080064008001840A0406A9
:1016F600031900340406782B8312031306090739ED
:10170600F0007008F100710808008312031306093F
:101716000739A0002008A10021080800831203133E
:10172600A300851223080A128A15AA23831203131B
:10173600851608000A128A15B7250A128A15831219
:101746000313071DA82B87140800871008008312AF
:101756000313A2001308A0002008A1008C11220880
:1017660093008C1DB42B8C11080083120313851271
:101776000A128A156F2383120313A3002308A400F9
:1017860085162408080083120313A100A0013A302D
:1017960021020318D42B30302102031CD42BA001C4
:1017A600A00A200C080083120313861AE32B733059
:1017B600B5008030B6000A128A1143240A128A152F
:1017C6000A128A15B725080083120313861AF42B0A
:1017D6007B30B5008030B6000A128A1143240A1203
:1017E6008A150A128A15B7250800831203132008E2
:1017F600A4002407A03E8400220883138000840AE4
:10180600230880002008AA3E840080010800831275
:101816000313A20022088400831300082006031D78
:10182600162C22080800220884000130A2070008AE
:10183600031D0D2C003008000A128A15B7250A125E
:101846008A15831203136D0803190800851C080006
:1018560068086904031D08000130E8000030E9004B
:1018660083160313B101B20108001E30831203135D
:101876006A066B0403190719452C0A128A15FF24F8
:101886000A128A158312031368036904031D502C78
:101896006D03031D502C071508000711080083125D
:1018A6000313AA0005122A08A8002807A900290878
:1018B600AA002A080A128A15AA230A128A1583126E
:1018C600031327080A128A15AA238312031305167F
:1018D600080083120313A401A5012508803AA2007B
:1018E6002108803A2202031D7A2C200824020318BC
:1018F6000800823083120313A300DD30A200A20B7E
:10190600822CA30B822C013083120313A407031825
:10191600A50A0030A507702C83120313A401A501A4
:10192600201C9B2C2208A4070318A50A2308A50738
:1019360001300310A20DA30DFF3E031D9C2C0130A8
:101946000310A10CA00CFF3E031DA32C20082104AC
:10195600031D932C2508A1002408A000080083126B
:101966000313A100B82C8312031364008316031714
:101976008C18B62C831203132108831203178D00CB
:101986003F3083120313A0002008831603178C052B
:101996000C1403100C1803140030031801308312C2
:1019A60003170C08080083120313A7002708A600D4
:1019B600A60DA60D1F082606C33926069F001F146E
:1019C6000130A0000030A1000A128A156C240A1208
:1019D6008A15831203139F140130A0000030A10062
:1019E6000A128A156C240A128A15831203139F1889
:1019F600F82C1F101E0808008312031307106F032C
:101A0600031D0C2D03300A128A15D6240A128A15D4
:101A1600122D7C080A128A15B2240A128A1583121C
:101A26000313A8002808A90000300A128A15D62434
:101A36000A128A158312031329020318252DED01B4
:101A4600ED0A262DED010710080083120313A600E8
:101A56002608A2002208A700270884000A128A1175
:101A66000A260A128A15003A03193E2D0130A200F1
:101A76002208A7072F2D2608A2008030A300A2095E
:101A8600A309A20A0319A30A2708A4008030A50007
:101A960022082407A00023080318230A2507A1000B
:101AA600080083120313A200831603178C18572D00
:101AB600831203132208831203178D008312031364
:101AC6002008831203178C003F3083120313A100F2
:101AD6002108831603178C058312031303108B1B2F
:101AE60003148B13831603170C1555308D00AA307B
:101AF6008D008C140C1183120313031C08008B1722
:101B06000800013083120313A9000030AA00270839
:101B1600803AA8002A08803A2802031D942D290835
:101B26002602031C08008312031387140230A00048
:101B36000030A1000A128A156C240A128A15831233
:101B4600031387100630A0000030A1000A128A1580
:101B56006C240A128A15013083120313A90703188D
:101B6600AA0A0030AA078A2D1E30831203136A06BA
:101B76006B0403190719C42D0A128A15FF240A12C9
:101B86008A15831203136D030319851CD92D0719B2
:101B9600D92D07150030A000A1007830A200003032
:101BA600A3000A128A15F8230A128A15831603134C
:101BB6002A08031908000A128A15FF240A128A1530
:101BC600831203136D08031D851CF42D0030A0003D
:101BD600A1007830A2000030A3000A128A15F8236B
:101BE600080007110800F301F4017408803AFF00A9
:101BF60080307F02031D012E053073020318080092
:101C06007308F0007007A03E840083130008F100FB
:101C1600840A0008F2007208803AFF0080307F02D2
:101C2600031D172E01307102031C2B2E7308F000C2
:101C36007007A03E8400FF3083138007840F0008DE
:101C46000318000AFF00FF307F0780008403312E4F
:101C56007308AA3E840083138001800A0130F307CB
:101C66000318F40A0030F407F82D83120313AD00AD
:101C76000130A9020030031CAA03AA02290A03198B
:101C86002A0A0319792E2D088400831300080319E4
:101C96005A2E280884000A128A110A260A128A1560
:101CA600AB002D08840000082B060319702E2808A7
:101CB60084000A128A110A26AB00AC01AB09AC09F2
:101CC600AB0A0319AC0A2D08840000082B07A800EC
:101CD6002C0803182C0AA90008000130AB002B08B9
:101CE600AD070130AB002B08A8073B2EA801A901C0
:101CF6000800831603130F178F160F120F14831283
:101D060003138501860187010B30831603138500B3
:101D16003F3086001030870083160317880189013B
:101D26000814881583160313811395128312861ED1
:101D3600992EF03094051412831603131417941376
:101D4600831203139416831603138C118312031341
:101D5600851605168B150B17831603130C148B1794
:101D6600961630308312031390000B308F00DB3051
:101D76008E0010141F139F13831603139F139F12B5
:101D86001F1283120313EA01EB0183160313B50135
:101D9600B601B701B8010800023083120313A00090
:101DA6000030A1000530A2000030A3000A128A15F7
:101DB600F8230A128A1520300A128A1591270A1268
:101DC6008A150D3083120313B600FB30B500B50B30
:101DD600EA2EB60BEA2E0E300A128A11E1250A12F5
:101DE6008A15023883120313B5003508A7000E3092
:101DF6000A128A1552240A128A1540300A128A15C6
:101E060091270A128A150E300A128A11E1250A1242
:101E16008A150239031D192F831603132C0803197B
:101E2600062F0A128A1159220A128A1560300A12DE
:101E36008A1591270A128A15A53083120313B50055
:101E4600B50B232F262F83120313EE01EE0A08008B
:101E5600033083120313A0000030A1000530A20056
:101E66000030A3000A128A15F8230A128A152030B8
:101E76000A128A1591270A128A1583120313EE0194
:101E8600E101E201E301E4016408803AFF008030E9
:101E96007F02031D502F1E3063020318742F831216
:101EA60003136308B93E8400831380010130E307FE
:101EB6000318E40A0030E407472F0A128A15B823EC
:101EC6000A128A1583120313DF006108B93E8400E3
:101ED6005F08831380000130E1070318E20A00302F
:101EE600E20783120313861D7D2F831603132D0825
:101EF6000319602F0D3083120313E000FB30DF005F
:101F0600DF0B832FE00B832F00300A128A159127EF
:101F16000A128A150A128A1148200800831203132E
:101F2600AC00051200300A128A11E1250A128A1540
:101F360083120313AB002B08AD00E92F2D081F39C0
:101F46008038AB002B08A70000300A128A155224ED
:101F56000A128A15FC2F831203132D081F396038C5
:101F6600AB002B08A70000300A128A1552240A1269
:101F76008A15FC2F831203132D081F394038AB0036
:101F86002B08A70000300A128A1552240A128A1555
:101F9600FC2F831203132D081F392038AB002B08A2
:101FA600A70000300A128A1552240A128A15FC2F3D
:101FB600831203132D081F39AB002B08A70000302E
:101FC6000A128A1552240A128A15FC2F8312031349
:101FD6002C08003A0319DB2F203A0319CC2F603A5C
:101FE6000319BD2F203A0319AE2FE03A0319A12F8A
:0A1FF600FC2F8312031305160800E8
:02400E0014E0BC
:00000001FF
