:060000000A128A11122809
:10000800FE00030EF8000408F9000A08FA0083123B
:1000180003137F08FB000A128A11EB2B0A128A11BC
:10002800BC2F553083120313BB003B08B000AF3020
:100038000A128A15D1250A128A11003A03192528AD
:10004800262842280A128A15D7230A128A11063A44
:10005800031D2F2830284228013083120313DF00A4
:100068000030E000FC01FD016430A0000030A10078
:100078000A128A15DE240A128A11F5295D308312C4
:100088000313BB003B08B000AF300A128A15D12514
:100098000A128A11003A0319522853286F280A12A3
:1000A8008A15D7230A128A11073A031D5C285D288E
:1000B8006F28013083120313DF000030E000FC01D9
:1000C800FD016430A0000030A1000A128A15DE2468
:1000D8000A128A11F529823083120313BB003B08E8
:1000E800B000AF300A128A15D1250A128A11003AD7
:1000F80003197F28802899288312031307150A30CB
:10010800A0000030A1000A128A15DE240A128A1102
:100118008312031307110530A0000030A1000A1252
:100128008A15DE240A128A11F52974308312031302
:10013800BB003B08B000AF300A128A15D1250A125D
:100148008A11003A0319A928AA28C328831203137D
:1001580087140A30A0000030A1000A128A15DE2494
:100168000A128A118312031387100530A000003089
:10017800A1000A128A15DE240A128A11F5296530AF
:1001880083120313BB003B08B000AF300A128A1574
:10019800D1250A128A11003A0319D328D428E9284C
:1001A80000300A128A1506250A128A1183120313CF
:1001B800BB003B08BC003C30B5000030B6000A125A
:1001C8008A11DA240A128A11F5297B308312031363
:1001D800BB003B08B000AF300A128A15D1250A12BD
:1001E8008A11003A0319F928FA280F2903300A124C
:1001F8008A1506250A128A1183120313BB003B08CD
:10020800C4004430B5000030B6000A128A11DA245E
:100218000A128A11F529443083120313BB003B08E4
:10022800B000AF300A128A15D1250A128A11003A95
:1002380003191F29202942290A128A1533250A126F
:100248008A11831203136A08031D2B2935293630B6
:10025800B5008030B6000A128A11DA240A128A110F
:10026800F529283083120313B5008030B6000A122E
:100278008A11DA240A128A11F529F5296D308312B8
:100288000313BB003B08B000AF300A128A15D12512
:100298000A128A11003A0319522953297229831222
:1002A80003136E08013A031D5A295B2965299E30FC
:1002B800B5008030B6000A128A11DA240A128A11AF
:1002C800F5299A3083120313B5008030B6000A125C
:1002D8008A11DA240A128A11F529F5294D30831278
:1002E8000313BB003B08B000AF300A128A15D125B2
:1002F8000A128A11003A0319822983299229831242
:1003080003136E08013A031D8A298B298D29EE01F2
:10031800F529EE010314EE0DF529F5298F30831226
:100328000313BB003B08B000AF300A128A15D12571
:100338000A128A11003A0319A229A329B029013007
:1003480083120313BB003B08EF07F529FF30BB00FE
:100358003B08EF00F529F529893083120313BB0008
:100368003B08B000AF300A128A15D1250A128A114B
:10037800003A0319C029C129C9290130831203137E
:10038800EF02F529EF01F529F529953083120313BA
:10039800BB003B08B000AF300A128A15D1250A12FB
:1003A8008A11003A0319D929DA29F5298312031386
:1003B8006F08BB003B08CC004C30B5000030B600DD
:1003C8000A128A11DA240A128A11F529F529F5295F
:1003D800F529F529F529F529F529F529F529F52925
:1003E800F529080083120313B101B201E901DD0107
:1003F800DE010630B0001330AF00B130AE00AE0BF6
:10040800032AAF0B032AB00B032A0A2A8312031309
:10041800B301B4013408803AFF0080307F02031D25
:10042800172A0D303302031C1A2A1B2A1D2AF92AFF
:10043800F92A8312031333080E3E84000A128A1124
:100448000A260A128A11AE002E08A30006300A12E4
:100458008A157C240A128A11831203133308013E79
:1004680084000A128A110A260A128A11AE002E087E
:10047800A30007300A128A157C240A128A118312F3
:10048800031333081B3E84000A128A110A260A1233
:100498008A11AE002E08A30008300A128A157C249F
:1004A8000A128A118312031333080E3E84000A12BB
:1004B8008A110A260A128A11AE002E08A3000930F2
:1004C8000A128A157C240A128A118312031333082C
:1004D800013E84000A128A110A260A128A11AE0005
:1004E8002E08A3000A300A128A157C240A128A11DF
:1004F8008312031333081B3E84000A128A110A264A
:100508000A128A11AE002E08A3000B300A128A15AF
:100518007C240A128A110E300A128A1598240A12AB
:100528008A11023883120313AE002E08A3000E307E
:100538000A128A157C240A128A1140300A128A1576
:1005480090270A128A1183120313B101B201D32A28
:100558000E300A128A1598240A128A11831203137C
:10056800AE00AE1CB82AB92AC52AE9010314E90D60
:100578003408DE01DE073308DD01DD070130FB2A20
:10058800FB2A0130B1070318B20A0030B207F9306C
:10059800AE006400AE0BCD2AD12A6400D32A8312A0
:1005A80003133208803AFF0080307F02031DDE2AE1
:1005B80005303102031CE12AE22AAC2AE32A013081
:1005C80083120313B3070318B40A0030B4073408BE
:1005D800803AFF0080307F02031DF42A0D30330279
:1005E800031CF72AF82A1D2AF92A0030FB2A0800DA
:1005F800303083120313B5003508A30000300A1207
:100608008A157C240A128A11A83083120313B500B4
:100618003508A30001300A128A157C240A128A11AF
:10062800093083120313B5003508A30002300A12FB
:100638008A157C240A128A11073083120313B50025
:100648003508A30003300A128A157C240A128A117D
:100658000A3083120313B5003508A30005300A12C7
:100668008A157C240A128A11B93083120313B50043
:100678003508A3000D300A128A157C240A128A1143
:10068800113083120313B5003508A3000E300A1287
:100698008A157C240A128A11A33083120313B50029
:1006A8003508A30010300A128A157C240A128A1110
:1006B8003E3083120313B5003508A30012300A1226
:1006C8008A157C240A128A11533083120313B50049
:1006D8003508A30016300A128A157C240A128A11DA
:1006E800593083120313B5003508A30017300A12D6
:1006F8008A157C240A128A114E3083120313B5001E
:100708003508A30018300A128A157C240A128A11A7
:10071800433083120313B5003508A30019300A12B9
:100728008A157C240A128A11723083120313B500C9
:100738003508A3001A300A128A157C240A128A1175
:100748003C3083120313B5003508A3001B300A128E
:100758008A157C240A128A11803083120313B5008B
:100768003508A3001F300A128A157C240A128A1140
:1007780000300A128A1598240A128A110138831245
:100788000313B5003508A30000300A128A157C242B
:100798000A128A110A128A11F6210A128A11013ADA
:1007A800031DD72BD82BE42B013083120313A6008B
:1007B8000030A7000A128A1599250A128A11E42B1B
:1007C80000300A128A1590270A128A110800861A20
:1007D800EE2BEF2B0A2C60085F04031DF42BF52B7E
:1007E8000A2C0A128A15CD230A128A11F500023042
:1007F80075020318002C012C0A2C013083120313F4
:10080800DF000030E000FC01FD010A2C8312031315
:100818000C1C0F2C102CCB2C10100B308F00DB3045
:100828008E0001305F066004031D1B2C1C2C4B2C12
:100838006D08F6006C08F5000130FF000310F50D97
:10084800F60DFF0B222C7D08803AF7007608803AD7
:100858007702031D312C75087C020318342C352CC3
:100868004B2C0130FC070318FD0A0030FD078312EA
:1008780003138718402C412C432C8714742C871C95
:10088800462C472C742C8710742C742C742C013033
:10089800831203135F066004031D532C542C742C1D
:1008A8006D08F6006C08F5000130FF000310F50D27
:1008B800F60DFF0B5A2C7D08803AF7007608803A2F
:1008C8007702031D692C75087C02031C6C2C6D2CA7
:1008D800742C83120313DF01E0018710742C742C2D
:1008E800013083120313E3070318E40A0030E40716
:1008F8006408803AFF0080307F02031D852C023097
:100908006302031C882C892C992C83120313E3019E
:10091800E4010130E7070318E80A0030E8070A1283
:100928008A1578260A128A11992C831203136808EB
:10093800803AFF0080307F02031DA42C3C30670200
:10094800031CA72CA82CB32C83120313E701E8017E
:100958000130E5070318E60A0030E607B32C8312D6
:1009680003136608803AFF0080307F02031DBE2C07
:100978003C306502031CC12CC22CC72C8312031304
:10098800E501E601C72C831203131014CB2C0C10BD
:100998000B108B17CF2C7B08FF007A088A00790888
:1009A8008400780E8300FE0E7E0E09000430831248
:1009B8000313A0000030A1000530A2000030A300FE
:1009C8000A128A1521240A128A1183120313B90103
:1009D800BA0120300A128A1590270A128A110D309E
:1009E80083120313B800FB30B700B70BF92CB80B10
:1009F800F92CFE2C0E300A128A1598240A128A1134
:100A0800023883120313B7003708A3000E300A1206
:100A18008A157C240A128A1140300A128A159027F6
:100A28000A128A11242D831603132E08031D1D2D67
:100A3800242D0A128A11F6210A128A11322D242D28
:100A48000E300A128A1598240A128A118312031387
:100A5800B700B71C302D312D172D322D80300A12DA
:100A68008A1590270A128A11A63083120313B70039
:100A7800B70B3C2D640053300A128A15E1230A1281
:100A88008A1159300A128A15E1230A128A114E3046
:100A98000A128A15E1230A128A1143300A128A15AA
:100AA800E1230A128A11742D8312031339083507BA
:100AB800840036080318360AFF000A128A11002635
:100AC8000A128A110A128A15E1230A128A110130C0
:100AD80083120313B9070318BA0A0030BA07742D32
:100AE8008312031339083507840036080318360AB9
:100AF800FF000A128A1100260A128A110038031D03
:100B0800862D872D582D912D912D831603132E0890
:100B1800031D8F2D912D972D972D8312061E952D30
:100B2800962D892D972D03308312B700B70B9A2D78
:100B380000300A128A1590270A128A11F930831296
:100B48000313B7006400B70BA62DAA2D6400080094
:100B580083120313AF00EB2D2F0884008313800842
:100B68000319B72DB82DC92D2A0884000A128A1135
:100B78000A260A128A11AD002F08840000082D06E3
:100B88000319C72DC82DE22DC92D2A0884000A1281
:100B98008A110A260A128A11AD00AE01AD09AE0902
:100BA800AD0A0319AE0A2F08840000082D07AA0011
:100BB8002E0803182E0AAB00FF2DFF2D0130AD00C3
:100BC8002D08AF070130AD002D08AA07EB2D013025
:100BD800AB020030031CAC03AC02FF302C06031D33
:100BE800F72DFF302B06031DFA2DFB2DB02DFC2D04
:100BF800AA01AB01FF2D0800FF1B0A2E83137F18E3
:100C080083170008840A0319FF0A080006308A00BF
:100C18000408840A820700343F3447344F34573479
:100C28005F3477347E347F3486348734373467349E
:100C38006F344F34593463346D34773495349F347A
:100C48009F34A934A934453481348B3418341B3487
:100C58001E34213424342D347B3430347E34333400
:100C6800153427342A344E346F34743420344434E1
:100C7800613472346B3420342034203420342034EE
:100C880000344934743427347334203444346134A0
:100C980072346B342034203420342034003444340B
:100CA800413452344B34433441344C3443340034AB
:100CB8004334483453345434413454344534003480
:100CC8004E34313442344C3449344E344B3400348D
:100CD8004E34323442344C3449344E344B3400347C
:100CE800533445344E345334563441344C34003440
:100CF800533454344134543445343F340034463446
:100D08004C344134533448344234003450344F3432
:100D18005434563441344C34003446344C34413421
:100D2800533448344C340034443445344334443424
:100D38005634003449344E34433444345634003441
:100D480052344D34443456340034503449344334E6
:100D5800003450346F34743400340A128A15232650
:100D68000A128A11053083120313DC000F30DB00EE
:100D7800F430DA00DA0BBE2EDB0BBE2EDC0BBE2EF7
:100D88000A128A11FC220A128A11CA2E0A128A151C
:100D9800D7230A128A110038031DD32ED42EDA2E37
:100DA8000A128A15BF230A128A11DA2E0A128A1524
:100DB800D7230A128A11013A031DE32EE42EEA2EE4
:100DC8000A128A15B7240A128A11EA2E0A128A15FB
:100DD800D7230A128A11023A031DF32EF42EFA2E93
:100DE8000A128A15EF230A128A11FA2E0A128A1594
:100DF800D7230A128A11043A031D032F042F0A2F3E
:100E08000A128A1534240A128A110A2F0A128A151C
:100E1800D7230A128A11053A031D132F142F1A2FEC
:100E28000A128A154A240A128A111A2F83120313E6
:100E3800EB08031D202F212F272F0A128A15292797
:100E48000A128A11272F83120313061E2C2F2D2F07
:100E5800CA2E6B08031D312FCA2E0A128A113C278D
:100E68000A128A11CA2ECA2ECA2E0A128A111228EA
:100E7800033083120313A0000030A1000530A20044
:100E88000030A3000A128A1521240A128A11203080
:100E98000A128A1590270A128A1183120313EB018A
:100EA800D601D701D801D9015908803AFF0080300E
:100EB8007F02031D612F1E305802031C642F652F0B
:100EC800672F982F982F831203135808AF3E84007A
:100ED800831380010130D8070318D90A0030D907D5
:100EE8005908803AFF0080307F02031D7D2F1E3095
:100EF8005802031C802F812F672F982F982F0A12D2
:100F08008A1510240A128A1183120313D400560872
:100F1800AF3E84005408831380000130D6070318BD
:100F2800D70A0030D707982F83120313861D9D2FE9
:100F38009E2FA62F831603132D08031DA42F832F7E
:100F4800A62FA62F0D308312D500FB30D400D40B6A
:100F5800AB2FD50BAB2FB02F00300A128A15902774
:100F68000A128A110A128A1115200A128A11080017
:100F7800FC01FD0183135D3084006C300A128A1570
:100F8800C5230A128A11A0308400CD300A128A15AE
:100F9800C5230A128A11831790308400B8300A12C8
:100FA8008A15C5230A128A110A128A15BB230A1246
:100FB8008A11EC000A128A15BC230A128A11ED0064
:100FC8000A128A15BD230A128A11EE000A128A151E
:100FD800BE230A128A11EF0083010A128A11B12E68
:100FE80000300A128A15FF230A128A11831203138A
:060FF8001308FE2F0800A3
:1017760058340234013480340A128A15D0260A12EB
:101786008A15080064008001840A040603190034DF
:101796000406C62B8312031306090739F0007008E6
:1017A600F1007108D62B08008312031306090739C6
:1017B600A0002008A1002108E02B080083120313D3
:1017C600A300851223080A128A15FF230A128A1516
:1017D60083120313851608000A128A15D0260A12E8
:1017E6008A1583120313071DF92BFA2BFC2B87147A
:1017F600FE2B8710FE2B080083120313A20013088A
:10180600A0002008A1008C11220893000A2C8C1D30
:101816000D2C0E2C0A2C8C11080083120313851232
:101826000A128A11F4270A128A1583120313A300D7
:101836002308A40085162408202C0800831203130D
:101846002008A4002407A03E8400220883138000F9
:10185600840A230880002008AA3E84008001332CD5
:10186600080083120313861A392C3A2C442C55305F
:10187600B5008030B6000A128A11DA240A128A15D7
:10188600442C0A128A15D0260A128A1508008312D9
:101896000313861A4F2C502C5A2C5D30B50080301D
:1018A600B6000A128A11DA240A128A155A2C0A126A
:1018B6008A15D0260A128A15080083120313A2007D
:1018C60022088400831300082006031D6B2C6C2C51
:1018D6006F2C22087B2C7B2C220884000130A20767
:1018E6008008031D772C782C632C792C00307B2CF8
:1018F600080083120313A60005122608A400240775
:10190600A5002508A60026080A128A15FF230A1232
:101916008A158312031323080A128A15FF230A1253
:101926008A15831203130516080083120313AA00EF
:1019360005122A08A70027074038A8002808AA0089
:101946002A080A128A15FF230A128A150A128A1110
:10195600F4270A128A1583120313A7002708A90081
:1019660005162908B62C08001E30831203136706D5
:101976006804031DBF2CC02CCA2C0719C32CC42C09
:10198600CA2C0A128A1533250A128A15CA2C013066
:10199600831203135F066004031DD22CD32CDB2CA9
:1019A6006A08013A031DD82CD92CDB2C0715DD2C2F
:1019B6000711DD2C080083120313A401A501F62CE0
:1019C600823083120313A300DD30A200A20BE92CA0
:1019D600A30BE92CEE2C013083120313A407031882
:1019E600A50A0030A5072508803AA2002108803AFA
:1019F6002202031D002D20082402031C032D042DA2
:101A0600E32C052D080083120313A7002708A60060
:101A1600A60DA60D1F082606C33926069F001F140D
:101A26000130A0000030A1000A128A15DE240A1235
:101A36008A15831203139F140130A0000030A10001
:101A46000A128A15DE240A128A15292D8312031317
:101A56009F182E2D2F2D292D1F101E08322D080000
:101A66008312031307106E08013A031D3B2D3C2D0C
:101A7600482D03300A128A1506250A128A15831282
:101A86000313A8002808A9004D2D6F08A8002808F0
:101A9600A9004D2D00300A128A1506250A128A154C
:101AA6008312031329020318592D5A2D5E2DEA01BC
:101AB6000314EA0D5F2DEA010710080083120313D1
:101AC600A8002808A2002208A9006A2D6A2D013064
:101AD600A907FF30290784000A128A110A260A126A
:101AE6008A150038031D782D792D6A2D7A2D280840
:101AF600A2008030A300A209A309A20A0319A30A1F
:101B06002908A4008030A50022082407A60023087F
:101B16000318230A2507A7002608FF3EA00027086A
:101B26000318013EFF3EA100982D080001308312E4
:101B36000313A9000030AA00C12D831203138714D2
:101B46000230A0000030A1000A128A15DE240A1213
:101B56008A158312031387100630A0000030A100F7
:101B66000A128A15DE240A128A150130831203131B
:101B7600A9070318AA0A0030AA07C12D2708803A28
:101B8600A8002A08803A2802031DCB2D2908260220
:101B96000318CE2DCF2DA02DD02D080083120313B0
:101BA600B400122E3008B1003108AA0030080A121B
:101BB6008A1561250A128A15831203132108AC01BE
:101BC600AC072008AB01AB0734080A128A11AC2512
:101BD6000A128A15831203132B082A04031DF42DF7
:101BE600F52DF82D3408222E222E300884000A12F4
:101BF6008A110A260A128A15B100B2013108A0001C
:101C06003208A1003408013E0A128A1560240A121D
:101C16008A1583120313B3003308B400122E340856
:101C2600031D162E202E3408840083138008031DFE
:101C36001D2E1E2ED52D202E202E0030222E0800E1
:101C4600831603130F178F160F120F148312031325
:101C56008501860187010B308316031385003F300B
:101C6600860010308700831603178801890108143F
:101C760088158316031381139512412E8312861E2F
:101C8600452E462E412E472EF0309405141283160B
:101C96000313141794138312031394168316031352
:101CA6008C1183120313851605168B150B178316D5
:101CB60003130C148B1796163030831203139000FF
:101CC6000B308F00DB308E0010141F139F1383160A
:101CD60003139F139F121F1283120313E701E801D8
:101CE600E301E401E501E6010800F301F4017408EB
:101CF600803AFF0080307F02031D832E0530730279
:101D0600031C862E872E892ECF2ECF2E7308F00029
:101D16007007A03E840083130008F100840A0008BF
:101D2600F2007208803AFF0080307F02031D9D2E6C
:101D360001307102031CA02EA12EB32E7308F000F1
:101D46007007A03E8400FF3083138007840F0008CD
:101D56000318000AFF00FF307F0780008403BB2EB4
:101D66007308AA3E8400831380010314800DBB2EE2
:101D76000130F3070318F40A0030F4077408803AB8
:101D8600FF0080307F02031DCA2E05307302031C3C
:101D9600CD2ECE2E892ECF2E08001E308312031391
:101DA60067066804031DD82ED92EE32E0719DC2EEC
:101DB600DD2EE32E0A128A1533250A128A15E32E22
:101DC600831203136A08013A031DEA2EEB2E022F33
:101DD600851CEE2EEF2E022F0719F22EF32E022F60
:101DE60007150030A0000030A1007830A2000030B6
:101DF600A3000A128A1521240A128A15022F8316B5
:101E060003132A08031D082F282F0A128A153325C3
:101E16000A128A15831203136A08031D132F252F2E
:101E2600851C162F172F252F0030A0000030A1008B
:101E36007830A2000030A3000A128A1521240A1263
:101E46008A15282F0711282F282F08000230831201
:101E56000313A0000030A1000530A2000030A3004B
:101E66000A128A1521240A128A1520300A128A15A6
:101E760090270A128A150D3083120313B600FB3021
:101E8600B500B50B442FB60B442F492F0E300A125E
:101E96008A1598240A128A15023883120313B5008C
:101EA6003508A3000E300A128A157C240A128A15F8
:101EB60040300A128A1590270A128A156F2F831648
:101EC60003132C08031D682F6F2F0A128A11F6219F
:101ED6000A128A157D2F6F2F0E300A128A15982442
:101EE6000A128A1583120313B500B51C7B2F7C2FAB
:101EF600622F7D2F60300A128A1590270A128A15E2
:101F0600A63083120313B500B50B872F6400831226
:101F16000313EB010314EB0D080083120313AC004B
:101F2600051200300A128A1598240A128A1583129D
:101F36000313AB002B08AD00E92F2D081F3980389D
:101F4600AB002B08A30000300A128A157C240A1263
:101F56008A15FC2F831203132D081F396038AB0036
:101F66002B08A30000300A128A157C240A128A154F
:101F7600FC2F831203132D081F394038AB002B08A2
:101F8600A30000300A128A157C240A128A15FC2F37
:101F9600831203132D081F392038AB002B08A3002A
:101FA60000300A128A157C240A128A15FC2F831225
:101FB60003132D081F39AB002B08A30000300A12AB
:101FC6008A157C240A128A15FC2FFC2F8312031310
:101FD6002C08003A0319DA2F203A0319CB2F603A5E
:101FE6000319BC2F203A0319AD2FE03A0319A02F8D
:0A1FF600FC2F8312031305160800E8
:02400E0014E0BC
:00000001FF
